{
  "contractName": "TodoList",
  "abi": [
    {
      "inputs": [],
      "payable": false,
      "stateMutability": "nonpayable",
      "type": "constructor"
    },
    {
      "anonymous": false,
      "inputs": [
        {
          "indexed": false,
          "internalType": "uint256",
          "name": "id",
          "type": "uint256"
        },
        {
          "indexed": false,
          "internalType": "bool",
          "name": "completed",
          "type": "bool"
        }
      ],
      "name": "TaskCompleted",
      "type": "event"
    },
    {
      "constant": true,
      "inputs": [],
      "name": "taskCount",
      "outputs": [
        {
          "internalType": "uint256",
          "name": "",
          "type": "uint256"
        }
      ],
      "payable": false,
      "stateMutability": "view",
      "type": "function"
    },
    {
      "constant": true,
      "inputs": [
        {
          "internalType": "uint256",
          "name": "",
          "type": "uint256"
        }
      ],
      "name": "tasks",
      "outputs": [
        {
          "internalType": "uint256",
          "name": "id",
          "type": "uint256"
        },
        {
          "internalType": "string",
          "name": "content",
          "type": "string"
        },
        {
          "internalType": "bool",
          "name": "completed",
          "type": "bool"
        }
      ],
      "payable": false,
      "stateMutability": "view",
      "type": "function"
    },
    {
      "constant": false,
      "inputs": [
        {
          "internalType": "string",
          "name": "_content",
          "type": "string"
        }
      ],
      "name": "createTask",
      "outputs": [],
      "payable": false,
      "stateMutability": "nonpayable",
      "type": "function"
    },
    {
      "constant": false,
      "inputs": [
        {
          "internalType": "uint256",
          "name": "_id",
          "type": "uint256"
        }
      ],
      "name": "checkboxClicked",
      "outputs": [],
      "payable": false,
      "stateMutability": "nonpayable",
      "type": "function"
    }
  ],
  "bytecode": "0x60806040526000805534801561001457600080fd5b506100596040518060400160405280602081526020017f416464696e672061207461736b20697320796f7572206669727374207461736b81525061005e60201b60201c565b610165565b60008054600190810180835560408051606081018252828152602080820187815282840187905293865284815291909420845181559151805192936100ab939085019291909101906100ca565b50604091909101516002909101805460ff191691151591909117905550565b828054600181600116156101000203166002900490600052602060002090601f016020900481019282601f1061010b57805160ff1916838001178555610138565b82800160010185558215610138579182015b8281111561013857825182559160200191906001019061011d565b50610144929150610148565b5090565b61016291905b80821115610144576000815560010161014e565b90565b61054b806101746000396000f3fe608060405234801561001057600080fd5b506004361061004c5760003560e01c8063111002aa146100515780632f4a2bad146100f95780638d97767214610116578063b6cb58a5146101bd575b600080fd5b6100f76004803603602081101561006757600080fd5b81019060208101813564010000000081111561008257600080fd5b82018360208201111561009457600080fd5b803590602001918460018302840111640100000000831117156100b657600080fd5b91908080601f0160208091040260200160405190810160405280939291908181526020018383808284376000920191909152509295506101d7945050505050565b005b6100f76004803603602081101561010f57600080fd5b5035610243565b6101336004803603602081101561012c57600080fd5b50356103a3565b604051808481526020018060200183151515158152602001828103825284818151815260200191508051906020019080838360005b83811015610180578181015183820152602001610168565b50505050905090810190601f1680156101ad5780820380516001836020036101000a031916815260200191505b5094505050505060405180910390f35b6101c5610452565b60408051918252519081900360200190f35b600080546001908101808355604080516060810182528281526020808201878152828401879052938652848152919094208451815591518051929361022493908501929190910190610458565b50604091909101516002909101805460ff191691151591909117905550565b61024b6104d6565b60008281526001602081815260409283902083516060810185528154815281840180548651600296821615610100026000190190911695909504601f810185900485028601850190965285855290949193858401939092908301828280156102f45780601f106102c9576101008083540402835291602001916102f4565b820191906000526020600020905b8154815290600101906020018083116102d757829003601f168201915b50505091835250506002919091015460ff1615156020918201526040808301805115905260008581526001808452919020835181558383015180519495508594919361034593850192910190610458565b50604091820151600291909101805460ff1916911515919091179055818101518151848152901515602082015281517fe21fa966ca5cd02748c0752352d18c48165e61cb55b4c29cccf924b5a95fcff1929181900390910190a15050565b600160208181526000928352604092839020805481840180548651600296821615610100026000190190911695909504601f8101859004850286018501909652858552909491939290919083018282801561043f5780601f106104145761010080835404028352916020019161043f565b820191906000526020600020905b81548152906001019060200180831161042257829003601f168201915b5050506002909301549192505060ff1683565b60005481565b828054600181600116156101000203166002900490600052602060002090601f016020900481019282601f1061049957805160ff19168380011785556104c6565b828001600101855582156104c6579182015b828111156104c65782518255916020019190600101906104ab565b506104d29291506104f9565b5090565b604051806060016040528060008152602001606081526020016000151581525090565b61051391905b808211156104d257600081556001016104ff565b9056fea265627a7a7231582000622ba2005fc27f307d4634a456f33695358e068141ca3b2ec9dc76b58b634a64736f6c63430005100032",
  "source": "pragma solidity ^0.5.0;\r\n\r\ncontract TodoList{\r\n\r\n    uint public taskCount = 0;\r\n    mapping(uint => Task) public tasks;\r\n\r\n    struct Task{\r\n        uint id;\r\n        string content;\r\n        bool completed;\r\n    }\r\n\r\n    event TaskCompleted(\r\n    uint id,\r\n    bool completed\r\n  );\r\n    constructor() public{\r\n        createTask(\"Adding a task is your first task\");\r\n    }\r\n\r\n   function createTask(string memory _content) public{\r\n       taskCount ++;\r\n       tasks[taskCount] = Task(taskCount, _content, false);\r\n   }\r\n\r\n   function checkboxClicked(uint _id) public {\r\n        Task memory _task = tasks[_id];\r\n        _task.completed = !_task.completed;\r\n        tasks[_id] = _task;\r\n        emit TaskCompleted(_id, _task.completed);\r\n }\r\n\r\n\r\n   }\r\n",
  "sourcePath": "C:/Users/jjrab/Desktop/projects/TodoList-dapp/src/contracts/TodoList.sol",
  "compiler": {
    "name": "solc",
    "version": "0.5.16+commit.9c3226ce.Emscripten.clang"
  },
  "schemaVersion": "3.2.3",
  "updatedAt": "2021-02-07T10:28:48.207Z",
  "networkType": "ethereum",
  "devdoc": {
    "methods": {}
  },
  "userdoc": {
    "methods": {}
  }
}